S011000054505F345F323032342E73726563B5
S11300000C9434000C9451000C9451000C94510045
S11300100C9451000C9451000C9451000C94510018
S11300200C9451000C9451000C9451000C94510008
S11300300C9451000C9451000C9455010C945100F3
S11300400C9451000C9451000C94C3000C94510076
S11300500C9451000C9451000C9451000C945100D8
S11300600C9451000C94510011241FBECFEFD8E022
S1130070DEBFCDBF11E0A0E0B1E0ECE1F6E002C0EC
S113008005900D92A83CB107D9F721E0A8ECB1E0A6
S113009001C01D92AE3CB207E1F70E948A000C94A5
S11300A00C030C940000ECE7F0E090819F7D9083BA
S11300B090819064908390819F779083AAE7B0E0C9
S11300C09C9191609C939C9192609C939C91946070
S11300D09C939081907F90839081892B80838C91D5
S11300E080688C9385E38A95F1F700000895EAE728
S11300F0F0E080818064808380917A0084FFFCCF6B
S1130100EAE7F0E0808180618083809178009091BB
S11301107900089587E60E94A2010E94AC010E9422
S1130120B2010E94B80183E00E9453000E9435018D
S1130130789482E091E00E94C601809100018235AA
S113014041F080910001873421F0809100018234D4
S1130150A1F70E9477009093CD018093CC01BC015C
S113016080E090E00E94110220ED3FE34FE75EE360
S11301700E9477020E94E201862F6091000190E0C4
S11301800E941101DACF1F920F920FB60F92112421
S11301902F933F934F935F936F937F938F939F938B
S11301A0AF93BF93EF93FF938091C6008093C801F0
S11301B08091C801823539F4809300018CE291E08A
S11301C00E94C6011DC08091C801873439F4809310
S11301D0000183E491E00E94C60112C08091C8012D
S11301E0823439F4809300018CE591E00E94C601C9
S11301F007C08EE48093000184E791E00E94C60169
S1130200FF91EF91BF91AF919F918F917F916F91EA
S11302105F914F913F912F910F900FBE0F901F90C0
S11302201895623519F4809301010895673429F40F
S113023090938B0080938A000895623421F4909304
S1130240890080938800089584B5826084BD8FE01E
S113025087BDEEE6F0E080818260808385B58360AF
S113026085BD85B1806285B9089584B1866284B9FB
S1130270E0E8F0E08081806A80838081816080830F
S1130280E1E8F0E0808188608083808185608083FC
S11302908FEF90E090938B0080938A009093890075
S11302A0809388000E94240108951F920F920FB634
S11302B00F9211242F933F934F935F936F937F93E8
S11302C08F939F939091CB0180910101981730F403
S11302D08091CB018F5F8093CB0127C09091CA019D
S11302E0911108C081E08093CA0195B180E2892709
S11302F085B91BC04091C90150E02FEF30E0B9012E
S1130300681B71094617570734F48091C9018F5F40
S11303108093C9010AC095B180E2892785B91092FA
S1130320CB011092C9011092CA019F918F917F91C4
S11303306F915F914F913F912F910F900FBE0F904E
S11303401F9018951092C10096E09093C2001092ED
S1130350C5008093C4000895E1ECF0E080818860DA
S113036080830895E1ECF0E08081806180830895CA
S1130370E1ECF0E080818068808308958091C00082
S113038085FFFCCF08958093C6000895EF92FF92F5
S11303900F931F93CF937C01C0E007C00E94BE015E
S11303A0F80180810E94C301CF5F87010C0F111DEA
S11303B0F80180818111F2CFCF911F910F91FF90AD
S11303C0EF9008950E94560288F09F5798F0B92F35
S11303D09927B751B0F0E1F0660F771F881F991F76
S11303E01AF0BA95C9F714C0B13091F00E947002A6
S11303F0B1E008950C947002672F782F8827B85FB6
S113040039F0B93FCCF3869577956795B395D9F7CD
S11304103EF490958095709561957F4F8F4F9F4FD7
S11304200895E89409C097FB3EF4909580957095E3
S113043061957F4F8F4F9F4F9923A9F0F92F96E92C
S1130440BB279395F695879577956795B795F111A1
S1130450F8CFFAF4BB0F11F460FF1BC06F5F7F4F3E
S11304608F4F9F4F16C0882311F096E911C0772350
S113047021F09EE8872F762F05C0662371F096E859
S1130480862F70E060E02AF09A95660F771F881F28
S1130490DAF7880F9695879597F9089557FD905840
S11304A0440F551F59F05F3F71F04795880F97FB34
S11304B0991F61F09F3F79F08795089512161306EE
S11304C01406551FF2CF4695F1DF08C0161617061D
S11304D01806991FF1CF8695710561050894089552
S11304E0E894BB2766277727CB0197F908950E94E4
S11304F08A020C94FB020E94ED0238F00E94F4027E
S113050020F0952311F00C94E4020C94EA021124D7
S11305100C9471020E944E0270F3959FC1F3950FE3
S113052050E0551F629FF001729FBB27F00DB11D73
S1130530639FAA27F00DB11DAA1F649F6627B00D03
S1130540A11D661F829F2227B00DA11D621F739FEC
S1130550B00DA11D621F839FA00D611D221F749FFA
S11305603327A00D611D231F849F600D211D822F41
S1130570762F6A2F11249F5750409AF0F1F0882368
S11305804AF0EE0FFF1FBB1F661F771F881F915095
S11305905040A9F79E3F510580F00C94E4020C945E
S11305A071025F3FE4F3983ED4F38695779567959F
S11305B0B795F795E7959F5FC1F7FE2B880F911DBF
S11305C09695879597F9089597F99F6780E870E065
S11305D060E008959FEF80EC089500240A941616B5
S11305E0170618060906089500240A94121613061D
S11305F0140605060895092E0394000C11F48823AB
S113060052F0BB0F40F4BF2B11F460FF04C06F5FC6
S10F06107F4F8F4F9F4F0895F894FFCF49
S113061C4EFF50726573696F6E6520522C20472013
S113062C6F204220706172612063616D6269617236
S113063C20656C20636F6C6F720D0A00496E7465D3
S113064C6E7369646164204C4544205245442020F7
S113065C0D0A00496E74656E7369646164204C45BF
S113066C4420475245454E20200D0A00496E7465BE
S113067C6E7369646164204C454420424C5545209A
S113068C200D0A004C6563747572612064656C20DE
S113069C706F74656E63696F6D6574726F207061D1
S11306AC7573616461202D20496E677265736520D2
S11306BC756E20636F6C6F722028522C2047206F4C
S11306CC204229207061726120636F6E74696E75AB
S10B06DC617220200D0A0000E8
S9030000FC
